S0030000FC
S1130003383806010F202020202020202020202003
S113001320202020202320202020202020202020D6
S113002320202020202023417E4441555A000000F3
S1130100CC023EDDDDCC01D2DDC5CC022FDDE37FA8
S113011000017F00007F102C8630B7102B8624B797
S1130120102D8641B71022B710238611B710210E67
S1130130C604CE0003A600B7B5F0BD018B085A2C47
S1130140F47D000027FBBD0179962E8B30B7B5F105
S1130150BD018BBD0182CE0019A600B7B5F1BD016A
S11301608B08A600812326F3BD019D7F000020D1CA
S11301703F8601B7B5F0BD018B86C0B7B5F0BD01B0
S11301808B398680B7B5F0BD018B3986049702960A
S11301900226FC3986FA9702960226FC39B610002C
S11301A0818A26F9C641C15B27FABD0179F7B5F109
S11301B0BD018BBD0194B61000818827035C26E63F
S11301C0D72B39BD0171962FB7B5F14A972FBD01D1
S11301D08B39CE10001E2E20111E2E80013B962B33
S11301E0B7102F1D2D881C2D243B1D2D24CE001946
S11301F0F6102F86009130271AC10027128600912D
S113020032272586009732D72E3A09962BA7007CF1
S113021000003BD72C7C00305AD731865FA70008FA
S11302205A7D003126F327E77C0032D72D27E0CE14
S113023010001C2D88B610239A01B710233B86406A
S1130240B71023FC1018C307D0FD10187A00023B26
S9030000FC
