S0030000FC
S1130000383806010F80C050617573652020205573
S1130010702F446F776E2052657365742020204DD5
S11300206F64652020202020202020202020200014
S1130100867E97DCCC01E7DDDDFC100EFD10188641
S113011040B710228640B710230EB610399A80B724
S113012010398623B71030C604CE0000A600B7B538
S1130130F08604972F962F26FC085A2CEFB6100051
S11301408189270220013FB610318155250681ABF4
S11301502527204A9605B7B5F08604972F962F26B3
S1130160FCC607CE0007A600B7B5F18604972F9604
S11301702F26FC085A2CEF20489605B7B5F08604C4
S1130180972F962F26FCC607CE000FA600B7B5F111
S11301908604972F962F26FC085A2CEF20239605C9
S11301A0B7B5F08604972F962F26FCC607CE001706
S11301B0A600B7B5F18604972F962F26FC085A2C73
S11301C0EF9606B7B5F08604972F962F26FCC60740
S11301D0CE001FA600B7B5F18604972F962F26FCF4
S11301E0085A2CEFBD013D8640B71023FC1018C3FC
S10C01F007D0FD10187A002F3B22
S9030000FC
