S0030000FC
S1130000383806010F80C04D6963726F636F6E7478
S10B0010726F6C6C65727300E1
S1130100867E97DCCC0177DDDDFC100EFD101886B1
S113011040B710228640B710230EC604CE0000A6B6
S113012000B7B5F086049717961726FC085A2CEFEB
S11301309605B7B5F086049717961726FCC607CE22
S11301400007A600B7B5F186049717961726FC0892
S11301505A2CEF9606B7B5F086049717961726FC27
S1130160C607CE000FA600B7B5F1860497179617F9
S113017026FC085A2CEF3F8640B71023FC1018C306
S10C018007D0FD10187A00173BAA
S9030000FC
