S0030000FC
S113000068657861646563696D616C3A5F7E237EBF
S113001030313233343536373839416243644546FA
S1130020674850C0CF92868DA4A0CE808C88A1F062
S109003083B0B884899836
S1130100860ABDFFB8CE0000BD013EBDFFCD910EF5
S11301102739CE001F18CE0032E600112707091830
S113012009270F20F418A600B71004962CBDFFB8B9
S113013020CE867FB71004862CBDFFB820C2A6004F
S10F0140910F2706BDFFB80820F4393FDA
S9030000FC
