S0030000FC
S11300004368617261637465723D3E3E23303132F0
S1130010333435363738394162436445466748508E
S1130020C0CF92868DA4A0CE808C88A1F083B0B876
S106003084899824
S1041004FFE8
S1130100860ABDFFB8CE0000BD0143BDFFCD910CF2
S1130110273ECE001F18CE0032E60011270709182B
S113012009270F20F418A600B71004862CBDFFB8C9
S113013020CE867FB71004863FBDFFB8862CBDFF56
S1130140B820BDA600910B2706BDFFB80820F439DE
S10401503F6B
S9030000FC
